:10008F003F065B4F666D7D077F6F777C395E7971B9
:03007200750810FE
:10007500E4F509E509C3950850F6AF091200037FB9
:0A008500507EC31200AB050980E9AC
:0B00AB00EF1FAC0670011E4C70F62227
:02000300AD0747
:10000500E4FBEBB40800504D900014F82828730267
:10001500002C02003002003802003C0200440200BD
:1000250048020050020054C2908002D290C291C290
:10003500928022C2908002D290D291C2928016C242
:10004500908002D290C291D292800AC2908002D250
:1000550090D291D292ED90008F93F5807F647E00CF
:0C0065001200ABE4F5800BEB6408709611
:01007100226C
:0300000002009F5C
:0C009F00787FE4F6D8FD7581090200723C
:00000001FF
